:10000000CCEF15F00000000000EF00F00000000051
:0A0010000000000000000000F3D71C
:0E001C00020161B102D08B9801D08B881200D6
:0E002A00020161B102D08B9601D08B861200CC
:0E003800020161B102D08D9601D08D861200BA
:0E004600020161B102D0899401D089841200B8
:0E005400020161B102D08B9C01D08B8C120096
:0E006200020161B102D08B9401D08B84120098
:0E007000020161B102D08B9A01D08B8A12007E
:0E007E00020161B102D08B9E01D08B8E120068
:0E008C00020161B102D08A9201D08A82120074
:0E009A00020161B102D08D9401D08D8412005C
:0E00A800020161B102D08F9201D08F8212004E
:0E00B600020161B102D08F9401D08F8412003C
:0E00C400020161B102D08B9801D08B8812002E
:0E00D200020161B102D08B9601D08B86120024
:0E00E000020161B102D08A9401D08A8412001C
:0E00EE00020161B102D08B9801D08B88120004
:0E00FC00020161B102D08B9601D08B861200FA
:0E010A00020161B102D08F9001D08F801200EF
:0E011800020161B102D08B9A01D08B8A1200D5
:0E012600020161B102D08B9801D08B881200CB
:0E013400020161B102D08B9801D08B881200BD
:0E014200020161B102D08B9601D08B861200B3
:0E015000020161B102D08B9201D08B821200AD
:0E015E00020161B102D08B9A01D08B8A12008F
:0E016C00020161B102D08D9001D08D80120091
:10017A000F0121B302D00000FBD761C21CFF12009D
:0E018A00ACB202D00000FCD761C2ADFF120083
:0E019800020161B102D08B9001D08B80120069
:0E01A600020161B102D0899001D0898012005F
:0E01B400020161B102D0899801D08988120041
:0E01C200020161B102D0899201D0898212003F
:0E01D000020161B102D08B9601D08B86120025
:0E01DE00020161B102D08D9201D08D8212001B
:0E01EC00020161B102D08B9801D08B88120005
:0E01FA00020161B102D08B9E01D08B8E1200EB
:0E020800020161B102D08A9001D08A801200FA
:0E021600020161B102D08B9601D08B861200DE
:0E022400020161B102D08B9C01D08B8C1200C4
:10023200F250026EF29E0500FF6A0150FE6E0050FF
:08024200FD6E02BEF28E1200F7
:10024A0068B409D01F0E6614016E0150000A03E15A
:0A025A00010E006E01D0006A1200D0
:10026400C7B409D01F0EC514016E0150000A03E182
:0A027400010E006E01D0006A1200B6
:0A027E00000E80B4010E006E1200A5
:0A028800000E80B2010E006E12009D
:0A029200000E80B8010E006E12008D
:0A029C00000E82B8010E006E120081
:0A02A600000E84B4010E006E120079
:0A02B000000E84B6010E006E12006D
:0A02BA00000E82B6010E006E120065
:0A02C400000E82B8010E006E120059
:0A02CE00000E82B0010E006E120057
:0A02D800000E82BE010E006E12003F
:0A02E200000E81B0010E006E120044
:0A02EC00000E84B2010E006E120035
:0A02F600000E82B6010E006E120029
:0A030000000E82B6010E006E12001E
:0A030A00000E82BC010E006E12000E
:0A031400000E82BA010E006E120006
:0A031E00000E81B2010E006E120005
:0A032800000E82BE010E006E1200EE
:0A033200000E82BA010E006E1200E8
:0A033C00000E82B4010E006E1200E4
:04034600C584120058
:10034A0015C05BF216C05CF217C05DF218C05EF20F
:10035A00668266A21FD0155016101710181019E0E1
:10036A0002015B515C115D115E110CE1E3C1E1FF19
:10037A00E4C1E2FF060EE66EE1C100F0E2C101F05F
:10038A0053DF08D0010E02015B5F000E5C5B5D5B10
:06039A005E5BDFD71200DC
:1003A000A19A5BC26AFF15C05CF216C05DF217C06D
:1003B0005EF218C05FF268A421D015501610171015
:1003C00018101BE002015C515D115E115F110EE11E
:1003D000E3C1E1FFE4C1E2FF040EE66EE1C100F01B
:1003E000E2C101F026DF010E006E3AD0010E0201DB
:1003F0005C5F000E5D5B5E5B5F5BDDD715C05CF232
:1004000016C05DF217C05EF218C05FF2A1BA21D02B
:1004100015501610171018101BE002015C515D11E9
:100420005E115F110EE1E3C1E1FFE4C1E2FF040EE2
:10043000E66EE1C100F0E2C101F0FBDE010E006EEC
:100440000FD0010E02015C5F000E5D5B5E5B5F5BC7
:10045000DDD766BC02D0006A03D06684020E006E4F
:02046000120088
:0E046200026A016A006A086A036A000E12004C
:04047000668412008C
:080474000AAE029E000E120008
:0A047C00000E82B8010E006E12009F
:100486001BC05BF21CC05CF21DC05DF21EC05EF2BA
:10049600C582C5A21FD01B501C101D101E1019E0CE
:1004A60002015B515C115D115E110CE123C2E1FF9B
:1004B60024C2E2FF060EE66E21C200F022C201F05F
:1004C600B5DE08D0010E02015B5F000E5C5B5D5B72
:0604D6005E5BDFD712009F
:1004DC000B820BAE78EF02F00368026801680068CB
:0804EC000A360232FF0E120075
:0A04F400000E86B4010E006E120027
:1004FE000B840BAE8AEF02F0010E036E026A016AE4
:0A050E00006A0A360232FF0E1200E6
:10051800AECF01F0ABA202D0AB98AB8801C000F01F
:020528001200BF
:0A052A00000E86B0010E006E1200F4
:0A053400000E81B4010E006E1200EB
:0A053E00000E80B0010E006E1200E6
:0A054800000E82B8010E006E1200D2
:0A055200000E82B6010E006E1200CA
:0A055C00000E86B2010E006E1200C0
:100566001BC05DF21CC05EF21DC05FF21EC060F2D1
:100576009E96C5869EB61FD01B501C101D101E10C1
:1005860019E002015D515E115F1160110CE123C299
:10059600E1FF24C2E2FF030EE66E21C200F022C292
:1005A60001F044DE08D0010E02015D5F000E5E5BC5
:1005B6005F5B605BDFD70201C9CF5CF25B51000A6B
:1005C60002E1C58A01D0C59A9E96C5881BC05DF218
:1005D6001CC05EF21DC05FF21EC060F29EB61FD048
:1005E6001B501C101D101E1019E002015D515E11FA
:1005F6005F1160110CE123C2E1FF24C2E2FF030E8A
:10060600E66E21C200F022C201F010DE08D0010E13
:1006160002015D5F000E5E5B5F5B605BDFD75CC205
:0406260000F01200CE
:0A062A00000E82B8010E006E1200EF
:0A063400000EA4BA010E006E1200C1
:0C063E00000E0F0121B3010E006E12002F
:0A064A00000EACB2010E006E1200AB
:100654001DCF01F00F0122A302D02299228901C0EB
:0406640000F0120090
:0A066800000E84B0010E006E1200B7
:0A067200000E82BA010E006E1200A5
:0A067C00000E82B8010E006E12009D
:100686001BC05DF21CC05EF21DC05FF21EC060F2B0
:1006960002015B6B5C6B5C51120802E15B518E08D8
:1006A60008E3DDDD005201E004D002015B4B5C2B68
:1006B600F2D70201120E5C5D02E18F0E5B5D03E371
:1006C6007B0E006E24D0C580C5A020D01B501C1008
:1006D6001D101E101AE05D515E115F1160110EE1D2
:1006E60023C2E1FF24C2E2FF050EE66E21C200F03E
:1006F60022C201F09BDD010E006E09D0010E02013F
:100706005D5F000E5E5B5F5B605BDED7006A1200BA
:1007160015C05DF216C05EF217C05FF218C060F237
:1007260002015B6B5C6B5C51120802E15B518E0847
:1007360008E388DD005201E004D002015B4B5C2B2C
:10074600F2D70201120E5C5D02E18F0E5B5D03E3E0
:100756007B0E006E24D0668066A020D01550161041
:10076600171018101AE05D515E115F1160110EE14D
:10077600E3C1E1FFE4C1E2FF050EE66EE1C100F070
:10078600E2C101F053DD010E006E09D0010E020137
:100796005D5F000E5E5B5F5B605BDED7006A12002A
:0A07A600000E9EBA010E006E120054
:0A07B000000E82B2010E006E12006E
:1007BA009E965BC2C9FF1BC05CF21CC05DF21DC0E5
:1007CA005EF21EC05FF2C7A421D01B501C101D1080
:1007DA001E101BE002015C515D115E115F110EE1FA
:1007EA0023C2E1FF24C2E2FF040EE66E21C200F03A
:1007FA0022C201F019DD010E006E3AD0010E02018B
:10080A005C5F000E5D5B5E5B5F5BDDD71BC05CF20D
:10081A001CC05DF21DC05EF21EC05FF29EB621D002
:10082A001B501C101D101E101BE002015C515D11B3
:10083A005E115F110EE123C2E1FF24C2E2FF040E42
:10084A00E66E21C200F022C201F0EEDC010E006E5B
:10085A000FD0010E02015C5F000E5D5B5E5B5F5BA9
:10086A00DDD7C5BC02D0006A03D0C584020E006E73
:02087A0012006A
:10087C0015C05DF216C05EF217C05FF218C060F2D0
:10088C00A19A6686A1BA1FD0155016101710181011
:10089C0019E002015D515E115F1160110CE1E3C1C1
:1008AC00E1FFE4C1E2FF030EE66EE1C100F0E2C13C
:1008BC0001F0B9DC08D0010E02015D5F000E5E5B39
:1008CC005F5B605BDFD702016ACF5CF25B51000AB1
:1008DC0002E1668A01D0669AA19A668815C05DF21B
:1008EC0016C05EF217C05FF218C060F2A1BA1FD03A
:1008FC00155016101710181019E002015D515E11F9
:10090C005F1160110CE1E3C1E1FFE4C1E2FF030EF2
:10091C00E66EE1C100F0E2C101F085DC08D0010E09
:10092C0002015D5F000E5E5B5F5B605BDFD75CC2EC
:04093C0000F01200B5
:0A094000000E82B6010E006E1200D8
:0A094A00000E82B6010E006E1200CE
:0A095400000E82BC010E006E1200BE
:10095E000CB0F1EF04F00CA297EF05F00E6A000E4A
:10096E00026408EF05F0F00E0214D8A4D3EF04F0E1
:10097E00023A01380F0B02260138F00B016E0038D7
:10098E000F0B01260038F00B006E08380F0B0026F7
:10099E000838F00B086E0E84D89002BEECEF04F00F
:1009AE0008360036013602360E2A02BEECEF04F08F
:1009BE0008360036013602360E2A02BEECEF04F07F
:1009CE0008360036013602360E2A0E5003648DEFBD
:1009DE0005F0035E0BBC08AE92EF05F0D880800EDA
:1009EE0008640030000E002201220222D8A092EFED
:1009FE0005F0023201320032034A97EF05F092EF12
:100A0E0005F001C002F000C001F008C000F0086A55
:100A1E00000E0E8602643FEF05F0F00E0214D8A40D
:100A2E0027EF05F0023A01380F0B02260138F00BC2
:100A3E00016E00380F0B01260038F00B006E0E848D
:100A4E00D89002BEECEF04F00036013602360E2AC4
:100A5E0002BEECEF04F00036013602360E2A02BE5C
:100A6E00ECEF04F00036013602360E2AECEF04F0FD
:100A7E0001C002F000C001F0006A000E0E960E8852
:100A8E0002646CEF05F0F00E0214D8A457EF05F0D7
:100A9E00023A01380F0B02260138F00B016E0E845C
:100AAE00D89002BEECEF04F0013602360E2A02BEDA
:100ABE00ECEF04F0013602360E2A02BEECEF04F023
:100ACE00013602360E2AECEF04F001C002F0016A84
:100ADE00000E0E8602649CEF05F0F00E0214D8A4F0
:100AEE007BEF05F0023A0E84D89002BEECEF04F0D4
:100AFE0002360E2A02BEECEF04F002360E2A02BEB9
:100B0E00ECEF04F002360E2AECEF04F0010E0C6E40
:100B1E00EFDC9FEF05F0020E0C6EA5DC9FEF05F0EB
:100B2E00040E0C6ED4DC9FEF05F0080E0C6E92DCFA
:020B3E001200A3
:100B4000025006180E6E086A096A0B6A03500764A1
:100B500093EF06F006500A6E068E028E03500B6E5F
:100B60000750036E000E0B64E3EF05F00B50075EB9
:100B7000D8B484EF06F0070E076452EF06F0075E64
:100B800000C008F001C000F002C001F0026A074E88
:100B900084EF06F0076427EF06F0075E00C008F058
:100BA00001C000F0016A074E84EF06F0076405EF0C
:100BB00006F0075E00C008F0006A074E84EF06F0FA
:100BC0000764ECEF05F00AC002F005C001F004C0B4
:100BD00000F0086AAEEF07F0030E0764F7EF05F0C8
:100BE000075E08380F0B086E074E84EF06F0D890AA
:100BF0000832074E84EF06F0D8900832074E84EF93
:100C000006F0D890083284EF06F0030E076416EF62
:100C100006F0075E08380F0B086E0038F00B082648
:100C200000380F0B006E074E84EF06F0D8900032AC
:100C30000832074E84EF06F0D89000320832074E93
:100C400084EF06F0D8900032083284EF06F0030EED
:100C500007643EEF06F0075E08380F0B086E003899
:100C6000F00B082600380F0B006E0138F00B002641
:100C700001380F0B016E074E84EF06F0D890013259
:100C800000320832074E84EF06F0D890013200326D
:100C90000832074E84EF06F0D89001320032083255
:100CA00084EF06F0030E07646FEF06F0075E083866
:100CB0000F0B086E0038F00B082600380F0B006E83
:100CC0000138F00B002601380F0B016E0238F00BD3
:100CD000012602380F0B026E074E84EF06F0D89003
:100CE0000232013200320832074E84EF06F0D8900B
:100CF0000232013200320832074E84EF06F0D890FB
:100D00000232013200320832096A000E0EAE78EF6C
:100D100007F0081E001E011E021E082A00220122E2
:100D2000022278EF07F00750D8A499EF06F0AEEF53
:100D300007F0096A02C00AF0028E068E0750035CB3
:100D4000076ED8B46BEF07F0070E076439EF07F0B2
:100D5000075E0450096E0550046E0650056E066A63
:100D6000074E6BEF07F0070E07640EEF07F0075E04
:100D70000450096E0550046E056A074E6BEF07F0CC
:100D8000070E0764ECEF06F0075E0450096E046A74
:100D9000074E6BEF07F0070E0764D3EF06F00AC0AB
:100DA00002F0AEEF07F0030E0764DEEF06F0075E19
:100DB00009380F0B096E074E6BEF07F0D890093218
:100DC000074E6BEF07F0D8900932074E6BEF07F034
:100DD000D89009326BEF07F0030E0764FDEF06F0C1
:100DE000075E09380F0B096E0438F00B092604382A
:100DF0000F0B046E074E6BEF07F0D89004320932E8
:100E0000074E6BEF07F0D89004320932074E6BEFB4
:100E100007F0D890043209326BEF07F0030E076435
:100E200025EF07F0075E09380F0B096E0438F00B49
:100E3000092604380F0B046E0538F00B042605381C
:100E40000F0B056E074E6BEF07F0D890053204329A
:100E50000932074E6BEF07F0D890053204320932A1
:100E6000074E6BEF07F0D8900532043209326BEF72
:100E700007F0030E076456EF07F0075E09380F0B03
:100E8000096E0438F00B092604380F0B046E053880
:100E9000F00B042605380F0B056E0638F00B0526FF
:100EA00006380F0B066E074E6BEF07F0D890063230
:100EB000053204320932074E6BEF07F0D890063244
:100EC000053204320932074E6BEF07F0D890063234
:100ED000053204320932086A000E0EAE78EF07F0D0
:100EE000091E041E051E061E092A042205220622CA
:100EF0000950082604500022055001220650022203
:100F00000EBE8FEF07F0D8A09EEF07F0023201323D
:100F100000320832033E9EEF07F0A8EF07F0D8B08A
:100F2000A3EF07F0000E081E001E011E021E082A75
:100F30000022012202220A7EA3EF07F0010E0C6EAE
:100F40000EDDB0EF07F0020E0C6E09DDB0EF07F01A
:100F5000040E0C6E6EEC02F0B0EF07F0000E0C6E9B
:020F600012007D
:100F62000201596B5A6B52C257F253C258F251C224
:100F720000F0003600900080EFC1E1FFF0C1E2FF17
:100F820000C0E6FFEDC100F0EEC101F019EC01F086
:100F9200005002015913000E5A13010E545F000E45
:100FA200555B5451551116E0EBC1E1FFECC1E2FF74
:100FB200010EE66EE9C100F0EAC101F019EC01F0A0
:100FC20057C2E1FF58C2E2FF00C0E6FF0201574BE1
:100FD200582BE3D7EBC1E1FFECC1E2FFE66AE9C1BE
:100FE20000F0EAC101F019EC01F057C2E1FF58C26A
:100FF200E2FF00C0E6FF02015651000A06E101C20B
:1010020000F002C201F019EC01F002015651010A8E
:1010120006E1FAC100F0FBC101F019EC01F059C27E
:0810220000F05AC201F01200B7
:10102A000C6A0E6A0250D8A42EEF08F001C002F032
:10103A0000C001F0006A0E860250D8A42EEF08F014
:10104A0001C002F0016A0E960E880250D8B440EF31
:10105A0008F00E50035ED8A4D8A046EF08F0D89046
:10106A0002BE4CEF08F0003601360236032E35EF89
:10107A0008F046EF08F0010E0C6E31EC02F050EF6A
:10108A0008F0020E0C6E7FEC02F050EF08F0040E2E
:08109A000C6E3AEC02F01200AA
:1010A2000201516B526BF2C100F0F3C101F019EC75
:1010B20001F000C051F2000E0201526F51C200F065
:0610C20052C201F0120011
:1010C800640E0201196F020E1A6F000E1B6F000EDC
:1010D8001C6F860E156F060E166F000E176F000E2A
:1010E800186F860E356F040E366F000E376F000EC0
:1010F800386F660E316F050E326F5B0E336F020E5E
:10110800346FBA0E396F070E3A6F5B0E3B6F020EE3
:101118003C6F460E1D6F030E1E6F000E1F6F000EF4
:10112800206F949894968B988B9694889486C79EF3
:08113800C79C380EC66E1200C0
:101140007A0E0201296F010E2A6F610E2B6F020EBB
:101150002C6F540E256F060E266F000E276F000EA3
:10116000286F340E116F060E126F000E136F000EF3
:10117000146F3E0E0D6F060E0E6F000E0F6F000EF9
:10118000106F0F01218B900E226F98849892A4AA61
:0A11900003D01DCF00F0FBD71200C2
:10119A008A0E0201296F010E2A6F610E2B6F020E51
:1011AA002C6F180E256F050E266F000E276F000E86
:1011BA00286FA60E116F070E126F000E136F000E26
:1011CA00146F4A0E0D6F060E0E6F000E0F6F000E93
:1011DA00106FAC8A900EAB6E948E949C9EAA03D02C
:0811EA00AECF00F0FBD71200AC
:1011F200086A096A100E0C6E01340836093604506A
:10120200085E0550D8A0053C095ED8B007D004504E
:1012120008260550D8B0053C0926D890003601367C
:061222000C2EEAD71200B9
:101228000201596B5A6B52C257F253C258F251C25B
:1012380000F000360090EFC1E1FFF0C1E2FF00C00E
:10124800E6FFEDC100F0EEC101F019EC01F000502D
:1012580002015913000E5A1354C200F055C201F08E
:10126800010E545F000E555B0050011018E0EFC1ED
:10127800E1FFF0C1E2FF57C2E9FF58C2EAFFEECF33
:10128800E6FFEDC100F0EEC101F019EC01F00050ED
:1012980002015913000E5A13574B582BDDD75651DC
:1012A800000A06E101C200F002C201F019EC01F0E7
:1012B80002015651010A06E1FAC100F0FBC101F032
:0E12C80019EC01F059C200F05AC201F01200F8
:0812D6000B6A0B86FF0E1200EB
:1012DE00F8C1E1FFF9C1E2FF4AC2E9FF4BC2EAFFE2
:1012EE00EECFE6FFF6C100F0F7C101F019EC01F008
:0412FE00006A120070
:1013020021D0CF0EAF6EAC9447DF6BD0670EAF6EBD
:10131200AC9442DF66D0CF0EAF6EAC843DDF61D0BD
:10132200670EAF6EAC8438DF5CD0440EAF6EAC8417
:1013320033DF57D0220EAF6EAC842EDF52D0060EB2
:10134200006E59D00201000E006E4D1908E10050E6
:101352004C1905E1120E4B1902E14A51C00AD1E0C3
:10136200000E006E4D1908E100504C1905E1250EE2
:101372004B1902E14A51800AC9E0000E006E4D1974
:1013820008E100504C1905E14B0E4B1902E14A519C
:10139200000AC1E0000E006E4D1908E100504C1920
:1013A20005E1960E4B1902E14A51000AB9E0000E1E
:1013B200006E4D1908E100504C1905E1E10E4B1980
:1013C20002E14A51000AB1E04D51000A08E14C51D4
:1013D200010A05E14B51C20A02E14A51000AAAE0A0
:1013E200AED78A0E0101F66F010EF76F610EF86F2C
:0813F200020EF96F006A1200FF
:1013FA004AC24CF24BC24DF24FDEF1C151F24C0ED1
:10140A00526F020E536F020E546F000E556F566BD9
:10141A0006DF02014A51060A09E1F00E4B150101E5
:0E142A00FF6F0F0E02014B150101FE6F120045
:021438001200A0
:10143A004AC2F6FF4BC2F7FF4CC2F8FF0900F5CFCC
:10144A00F2F10900F5CFF3F10900F5CFF4F1090043
:10145A00F5CFF5F1040E02014A25F66E000E4B2176
:10146A00F76E000E4C21F86E0900F5CF01F2090063
:10147A00F5CF02F20900F5CF03F20900F5CF04F225
:10148A00080E4A25F66E000E4B21F76E000E4C210F
:10149A00F86E0900F5CFFAF10900F5CFFBF1090062
:1014AA00F5CFFCF10900F5CFFDF10C0E4A25F66ED9
:1014BA00000E4B21F76E000E4C21F86E0900F5CF95
:1014CA00EDF10900F5CFEEF10900F5CFEFF10900D2
:1014DA00F5CFF0F1100E4A25F66E000E4B21F76E8D
:1014EA00000E4C21F86E0900F5CFE9F10900F5CF9D
:1014FA00EAF10900F5CFEBF10900F5CFECF11200A2
:10150A004AC24DF24BC24EF24CC24FF20BD0A00E61
:10151A00C86ED5DD44D0280EC86ED1DD40D0040E89
:10152A00006E3FD04DC2F6FF4EC2F7FF4FC2F8FF22
:10153A000900F5CF01F00900F5CF02F00900F5CF57
:10154A0003F00900F5CF04F00450000A08E1035043
:10155A00010A05E10250860A02E10150A00AD7E019
:10156A004DC2F6FF4EC2F7FF4FC2F8FF0900F5CF92
:10157A0001F00900F5CF02F00900F5CF03F00900E8
:10158A00F5CF04F00450000A08E10350060A05E109
:10159A0002501A0A02E10150800ABDE0C0D7000ECB
:0415AA00006E1200BD
:1015AE004AC24DF24BC24EF24CC24FF20BD0A00EBD
:1015BE00C86E83DD44D0280EC86E7FDD40D0040E89
:1015CE00006E3FD04DC2F6FF4EC2F7FF4FC2F8FF7E
:1015DE000900F5CF01F00900F5CF02F00900F5CFB3
:1015EE0003F00900F5CF04F00450000A08E103509F
:1015FE00010A05E10250860A02E10150A00AD7E075
:10160E004DC2F6FF4EC2F7FF4FC2F8FF0900F5CFED
:10161E0001F00900F5CF02F00900F5CF03F0090043
:10162E00F5CF04F00450000A08E10350060A05E164
:10163E0002501A0A02E10150800ABDE0C0D7000E26
:04164E00006E120018
:101652004AC24DF24BC24EF24CC24FF20BD0A00E18
:10166200C86E31DD44D0280EC86E2DDD40D0040E88
:10167200006E3FD04DC2F6FF4EC2F7FF4FC2F8FFD9
:101682000900F5CF01F00900F5CF02F00900F5CF0E
:1016920003F00900F5CF04F00450000A08E10350FA
:1016A200010A05E10250860A02E10150A00AD7E0D0
:1016B2004DC2F6FF4EC2F7FF4FC2F8FF0900F5CF49
:1016C20001F00900F5CF02F00900F5CF03F009009F
:1016D200F5CF04F00450000A08E10350060A05E1C0
:1016E20002501A0A02E10150800ABDE0C0D7000E82
:0416F200006E120074
:1016F60021D0CF0EAF6EAC944DDD6BD0670EAF6EC2
:10170600AC9448DD66D0CF0EAF6EAC8443DD61D0BD
:10171600670EAF6EAC843EDD5CD0440EAF6EAC841B
:1017260039DD57D0220EAF6EAC8434DD52D0060EB2
:10173600006E59D00201000E006E4D1908E10050EE
:101746004C1905E1120E4B1902E14A51C00AD1E0CB
:10175600000E006E4D1908E100504C1905E1250EEA
:101766004B1902E14A51800AC9E0000E006E4D197C
:1017760008E100504C1905E14B0E4B1902E14A51A4
:10178600000AC1E0000E006E4D1908E100504C1928
:1017960005E1960E4B1902E14A51000AB9E0000E26
:1017A600006E4D1908E100504C1905E1E10E4B1988
:1017B60002E14A51000AB1E04D51000A08E14C51DC
:1017C600010A05E14B51C20A02E14A51000AAAE0A8
:1017D600AED78A0E0101F66F010EF76F610EF86F34
:0817E600020EF96F006A120007
:1017EE00520E0B6E2B0E0C6E000E0D6E0D2EFED7C6
:0C17FE000C2EFCD70B2EFAD700001200B6
:10180A0038D00F0120870D0E1F6F040E1E6F218521
:10181A0092DC7ED00F012087060E1F6F820E1E6F8C
:10182A00218589DC75D00F012087030E1F6F400EBA
:10183A001E6F218580DC6CD00F012087010E1F6F7F
:10184A00A00E1E6F218577DC63D00F012087010E61
:10185A001F6F150E1E6F21856EDC5AD00F0120876F
:10186A001F6B8A0E1E6F218566DC52D0060E006E33
:10187A0059D0000E006E02014D1908E100504C19B2
:10188A0005E1120E4B1902E14A51C00ABAE0000EF4
:10189A00006E4D1908E100504C1905E1250E4B194F
:1018AA0002E14A51800AB6E0000E006E4D1908E1C5
:1018BA0000504C1905E14B0E4B1902E14A51000A3E
:1018CA00B2E0000E006E4D1908E100504C1905E116
:1018DA00960E4B1902E14A51000AAEE0000E006E64
:1018EA004D1908E100504C1905E1E10E4B1902E1CE
:1018FA004A51000AAAE04D51000A08E14C51010A76
:10190A0005E14B51C20A02E14A51000AA7E0AED7EB
:10191A007A0E0101F66F010EF76F610EF86F020E73
:06192A00F96F006A1200D3
:1019300021D0CF0EAF6EAC9430DC6BD0670EAF6EA3
:10194000AC942BDC66D0CF0EAF6EAC8426DC61D0BD
:10195000670EAF6EAC8421DC5CD0440EAF6EAC84FD
:101960001CDC57D0220EAF6EAC8417DC52D0060EB2
:10197000006E59D00201000E006E4D1908E10050B2
:101980004C1905E1120E4B1902E14A51C00AD1E08F
:10199000000E006E4D1908E100504C1905E1250EAE
:1019A0004B1902E14A51800AC9E0000E006E4D1940
:1019B00008E100504C1905E14B0E4B1902E14A5168
:1019C000000AC1E0000E006E4D1908E100504C19EC
:1019D00005E1960E4B1902E14A51000AB9E0000EEA
:1019E000006E4D1908E100504C1905E1E10E4B194C
:1019F00002E14A51000AB1E04D51000A08E14C51A0
:101A0000010A05E14B51C20A02E14A51000AAAE06B
:101A1000AED78A0E0101F66F010EF76F610EF86FF7
:081A2000020EF96F006A1200CA
:101A280002014C6B4D6B4E6B4F6B4AC24BF251EC43
:101A380008F0F1C151F24B0E526F020E536F010EB6
:101A4800546F000E556F010E566F14EC09F0F1C17A
:101A580051F24C0E0201526F020E536F020E546F78
:101A6800000E556F566BB1EC07F04DC24EF2000EEA
:101A780002014F6F4EC201F0006A00C04EF201C071
:101A88004FF24C510012000E011200C04EF201C07C
:041A98004FF21200F7
:101A9C004AC204F04BC205F004C002F005C003F0CA
:101AAC00044A052A4CC200F04DC201F002014C4B15
:101ABC004D2B00C0E9FF01C0EAFF02C0E1FF03C0EB
:101ACC00E2FFEECFE6FF02C0E9FF03C0EAFFEE52F1
:0E1ADC0001E0E2D74AC200F04BC201F0120056
:101AEA000450000A12E10550000A0FE10650000AEC
:101AFA000CE10750000A09E1FF0E006EFF0E016EAD
:101B0A007F0E026EFF0E036EA8D0086A096A07509C
:101B1A00D8B420EF0EF00350D8B425EF0EF00250DF
:101B2A0006180A6E028E068E0E6A02C008F001C0FE
:101B3A000CF000C00DF004500D5E0550D8A0053C15
:101B4A000C5E0650D8A0063C085E086A0C6A0D6A4C
:101B5A00D8A0B7EF0DF0D890023201320032083225
:101B6A00010E0E6E0750035ED8A0C4EF0DF07E0E74
:101B7A000E240326D8B02AEF0EF0CAEF0DF07E0E1F
:101B8A000E240326D8A02FEF0EF0180E0B6E0D367A
:101B9A000C3608360036013602360E360450005E20
:101BAA000550D8A0053C015E0650D8A0063C025E4E
:101BBA0006340E120EA0E5EF0DF00D80F0EF0DF0D9
:101BCA00045000260550D8B0053C01260650D8B06E
:101BDA00062802260D900B2ECCEF0DF016EF0EF014
:101BEA00D8900036013602360E360450005E055093
:101BFA00D8A0053C015E0650D8A0063C025E063419
:101C0A000E10010B0D26D8B00C2AD8B4082AD8A475
:101C1A0016EF0EF008320C320D32032AD8B42AEF2E
:101C2A000EF00AAE089E0850026E0C50016E0D505E
:101C3A00006E32EF0EF0010E6BEC09F032EF0EF08F
:101C4A00020E31EC02F032EF0EF0040E6EEC02F0EE
:0C1C5A0032EF0EF0080E7FEC02F01200DA
:081C6600067EA0EC05F012005F
:101C6E000A6A0350D8A40A800750D8A40A820A50E0
:101C7E00D8B49AEF0EF0030AD8B453EF0EF00AB0B0
:101C8E004EEF0EF006AE98EF0EF096EF0EF002AE9F
:101C9E0096EF0EF098EF0EF00250800B0A6E029E39
:101CAE000650800B069E0A18D8B464EF0EF00A5048
:101CBE00D8B496EF0EF098EF0EF00750035CD8B440
:101CCE006EEF0EF0D8A08AEF0EF090EF0EF00650E9
:101CDE00025CD8B478EF0EF0D8A08AEF0EF090EF39
:101CEE000EF00550015CD8B482EF0EF0D8A08AEF4A
:101CFE000EF090EF0EF00450005CD8B49AEF0EF098
:101D0E00D8B090EF0EF00A52D8B498EF0EF096EFCE
:101D1E000EF00A52D8B496EF0EF098EF0EF0D8806F
:0E1D2E001200D8901200D880D8841200120043
:101D3C000050086E0150006E0250016E0350026E8E
:101D4C00036A0B6A0C6A9E0E036E0A6A020E0C6E14
:061D5C00AFEC04F01200E0
:101D62000050086E0150006E016A026A036A0B6A33
:101D72000C6A960E036E0A6A00C001F008C000F0F9
:0A1D8200086A026A15EC08F012006E
:101D8C000D6A086A0050D8B4000C04180A6E0ABE1A
:101D9C000D1E0B6A04AE02D0041E042A00AE02D043
:101DAC00001E002A005004100A6E0ABE1FD00450F8
:101DBC00085E003600340836045008260036060E3D
:101DCC000C6E00340836045000B0085E00A00826E3
:101DDC0000360C2EF6D700A008260BB015D00DAE91
:101DEC00000C001E002A081E082A000C04AE09D0A4
:101DFC0000BE04D00050086E006AF1D7006A002AB9
:101E0C00000C001E0B2AD3D7082A0450085CD8A457
:0E1E1C00E6D7086A002A00AEE2D7FF0C1200DB
:101E2A0002014E6B050E4E5D0AE24E514C25E16EE3
:101E3A00000E4D21E26E200EE66E4E2BF3D74E5168
:101E4A004C25E16E000E4D21E26EE66A4E074E51B8
:101E5A004C254F6F000E4D21506F0A0E046E000E76
:101E6A00056E4AC200F04BC201F0F9EC08F008C056
:101E7A0000F009C001F0300E00264FC2E1FF50C247
:101E8A00E2FF00C0E6FF0A0E046E000E056E4AC2AB
:101E9A0000F04BC201F0F9EC08F000C04AF201C0B0
:101EAA004BF2000E011802E1000E001801E102D007
:061EBA004E07CDD7120017
:101EC000086A096A000E07620364E5EF0FF002502A
:101ED00006180A6E075003267E0ED8A076EF0FF084
:101EE000035ED8B0EAEF0FF07AEF0FF0035ED8A0F0
:101EF000EFEF0FF0028E068E02C00EF001C00BF065
:101F000000C00DF000500402F4CF0CF001500502A7
:101F1000F4CF00F0F3CF08F00402F3500C26F45095
:101F20000822000E00220D500502F3500C26F4503A
:101F30000822000E002202500402F3500826F4503A
:101F4000002202500502016A000E0122F350002611
:101F5000F45001220D500602F3500826F4500022DE
:101F6000026A000E012202220B500602F3500026E4
:101F7000F4500122000E02220E500602F3500126F8
:101F8000F450022202BECDEF0FF0083600360136C3
:101F900002360306D8B4EFEF0FF0E0EF0FF0D88071
:101FA000800E08640030000E002201220222D8A018
:101FB000E0EF0FF0023201320032034AEAEF0FF095
:101FC0000AAE029E000EF2EF0FF0010E31EC02F0AD
:101FD000F2EF0FF0020E6EEC02F0F2EF0FF0040ED3
:061FE0007FEC02F012008C
:101FE60003DC02014A6B830E4B6FFDEC09F0F7EC44
:041FF6000BF01200DA
:101FFA001ED03EC24AF23FC24BF240C24CF229EC1A
:10200A000BF020D03EC24AF23FC24BF240C24CF221
:10201A00D7EC0AF017D03EC24AF23FC24BF240C296
:10202A004CF285EC0AF00ED0010E006E0BD00201C4
:10203A003D51000ADEE03D51010AE4E03D51020A49
:06204A00EAE0F2D71200EB
:102050000201486B496B3DC244F23EC245F23FC2A9
:1020600046F240C247F24751FF0A08E14651FF0AD3
:1020700005E14551FF0A02E14451FF0A0CE141C26A
:102080004AF242C24BF21F0E4C6F000E4D6F06DD3E
:10209000030E006EE9D1010E006F46AF0ED0800E28
:1020A0004619006E00C046F2002B41C2E1FF42C259
:1020B000E2FF2D0EE66E414B422B000E006E4719DB
:1020C00008E10050461905E10050451902E144516C
:1020D000000A0BE141C24AF242C24BF2630E4C6F5E
:1020E000000E4D6FDBDC006ABFD14751FF0A08E1EB
:1020F0004651000A05E14551000A02E14451000A37
:102100000CE141C24AF242C24BF25F0E4C6F000E2C
:102110004D6FC4DC00C200F0A7D1000E046E000EAB
:10212000056E000E066E7F0E076E44C200F045C2BB
:1021300001F046C202F047C203F099DD010ED8B0AB
:10214000000E006E00521BE044C200F045C201F0D8
:1021500046C202F047C203F0000E046E000E056E88
:10216000200E066E820E076EABDE00C044F201C088
:1021700045F202C046F203C047F24907CED7000E2F
:10218000046E000E056E200E066E820E076E44C2AF
:1021900000F045C201F046C202F047C203F067DD1D
:1021A000000ED8B0010E006E00521BE044C200F0D9
:1021B00045C201F046C202F047C203F0CD0E046EE4
:1021C000CC0E056E4C0E066E7B0E076E79DE00C0DF
:1021D00044F201C045F202C046F203C047F2492B67
:1021E000CED7FF0E4415086EFF0E4515096E7F0E03
:1021F00046150A6E000E47150B6E08C004F009C0A4
:1022000005F00AC006F00BC007F00436049005364E
:1022100006360736000E4415006E000E4515016E99
:10222000000E4615026EFF0E4715036E00C044F205
:1022300001C045F202C046F203C047F20450441107
:10224000006E05504511016E06504611026E075092
:102250004711036E00C044F201C045F202C046F2CD
:1022600003C047F27F0E475D006E00C043F2010ECF
:10227000476F00C004F044C200F045C201F046C2FE
:1022800002F047C203F0045007E000360090013628
:1022900002360336FF0FF8D700C044F201C045F202
:1022A00002C046F203C047F241C2E1FF42C2E2FF70
:1022B0004751300FE66E414B422B800E4919006E9C
:1022C000800E010A005C08E3800E060A006E800E94
:1022D0004919005C01E30AD041C2E1FF42C2E2FFBA
:1022E0002E0EE66E414B422B010E486F060E436FD9
:1022F0004351000A54E0476B44C200F045C201F06C
:1023000046C202F047C203F00036009001360236A2
:10231000033600360090013602360336445100265B
:1023200045510122465102224751032200C044F286
:1023300001C045F202C046F203C047F244C200F0B9
:1023400045C201F046C202F047C203F000360090D9
:1023500001360236033600C044F201C045F202C025
:1023600046F203C047F241C2E1FF42C2E2FF4751D9
:10237000300FE66E414B422B4851000A0EE14907EF
:102380004951000A0AE141C2E1FF42C2E2FF2E0EBA
:10239000E66E414B422B010E486F4307A9D7FF0E53
:1023A0004125E96EFF0E4221EA6EEE50300A05E14A
:1023B000010E415F000E425BF2D7FF0E4125E96E30
:1023C000FF0E4221EA6EEE502E0A04E1010E415F3B
:1023D000000E425B4951000A41E041C2E1FF42C2A6
:1023E000E2FF650EE66E414B422B800E4919006EEE
:1023F000800E000A005C0BE241C2E1FF42C2E2FF34
:102400002D0EE66E414B422B49510008496F49C2DF
:1024100043F2800E090A006E800E4919005C0EE23C
:102420000A0E046E43C200F0B1DC41C2E1FF42C2B9
:10243000E2FF0050300FE66E414B422B0A0E046E55
:1024400043C200F0A3DC08C000F041C2E1FF42C279
:10245000E2FF0050300FE66E414B422B41C2E1FFDC
:0A24600042C2E2FFE66A006A1200C1
:10246A002FD03EC24AF23FC24BF240C24CF241C2A6
:10247A004DF27BEC0BF032D03EC24AF23FC24BF235
:10248A0040C24CF241C24DF298EC0CF027D03EC249
:10249A004AF23FC24BF240C24CF241C24DF205EC45
:1024AA000CF01CD03EC24AF23FC24BF240C24CF280
:1024BA0041C24DF281EC09F011D0010E006E0ED02E
:1024CA0002013D51000ACDE03D51010AD5E03D51DE
:0E24DA00020ADDE03D51100AE5E0EFD71200E6
:1024E8000201006B0C0E005DD8B088D0C60EE96EF4
:1024F800000EEA6E0051E926D8B0EA2AEE50010132
:10250800FF1954E102013D51020A19E100C200F02D
:10251800000E016E0036009001360036009001363C
:10252800410E0024E96E010E0120EA6EEECF09F299
:10253800EECF0AF2EECF0BF2EECF0CF237D03D51D0
:10254800030A19E100C200F0000E016E0036009087
:102558000136003600900136110E0024E96E010E96
:102568000120EA6EEECF09F2EECF0AF2EECF0BF2BF
:10257800EECF0CF21BD03D51040A18E100C200F066
:10258800000E016E003600900136003600900136CC
:10259800E10E0024E96E000E0120EA6EEECF09F28A
:1025A800EECF0AF2EECF0BF2EECF0CF20201D20E12
:1025B800E96E000EEA6E0051E926D8B0EA2AEE501C
:1025C8000101FE1918E100C200F0000E016E00368C
:1025D80000900136003600900136230E0024E96E83
:1025E800000E0120EA6EEECF05F2EECF06F2EECF36
:1025F80007F2EECF08F20201002B74D705C200F0F3
:1026080006C201F007C202F008C203F09EEC0EF009
:1026180000C004F001C005F002C006F003C007F0D6
:1026280009C200F00AC201F00BC202F00CC203F0AA
:1026380075EC0DF000C040F201C041F202C042F258
:1026480003C043F23EC200F03FC201F0B1EC0EF00D
:1026580040C204F041C205F042C206F043C207F08E
:042668002BDC120055
:0E266C0002014A6B4A0E4B6FFDEC09F01200A2
:10267A000201436B446B3DC245F23EC246F2800EF4
:10268A003E19006E800E005C02E1000E3D5D0BE219
:10269A00010E436F000E446F3D510008456F3EC264
:1026AA0046F2000E465745C24AF246C24BF23FC2B4
:1026BA004CF240C24DF215EC0FF0060E416F000EBF
:1026CA00426F000E006E4251005C02E14151000867
:1026DA0019E241513F25E16E42514021E26E010E5D
:1026EA00415D006E000E4259016E00503F25E96EB1
:1026FA0001504021EA6EEECFE6FF010E415F000E67
:10270A00425BDFD73FC2E1FF40C2E2FF200EE66E26
:10271A00435144111AE0416B426B41513F25E96E26
:10272A0042514021EA6EEE50200A03E1414B422B0E
:10273A00F4D7010E415F000E425B41513F25E16E25
:0C274A0042514021E26E2D0EE66E12009E
:1027560043C2F1F140C24AF241C24BF242C24CF2CC
:102766001DEC0AF03DC24AF23EC24BF23FC24CF2A9
:062776001CEC0AF0120049
:10277C00010E02014A6F14EC0DF0FF0E00160F0E45
:10278C000116B1EC0EF0CD0E046ECC0E056E4C0E97
:10279C00066E7A0E076E60EC0FF0CD0E046ECC0E4A
:1027AC00056E050E066E850E076E33EC0EF01200EC
:1027BC003DC240F23EC241F20D0E0201006F0A0E04
:1027CC00426F3AD040C24AF241C24BF26FEC09F070
:1027DC003ED040C2E9FF41C2EAFFEE520AE040C2DD
:1027EC004AF241C24BF26FEC09F00201404B412B13
:1027FC00F0D72DD040C2E9FF41C2EAFFEE520AE009
:10280C0040C24AF241C24BF26FEC09F00201404B5C
:10281C00412BF0D70201000E4A6F020E4B6F6FEC8A
:10282C0009F0420E02014A6F020E4B6F6FEC09F079
:10283C000ED0060E006E0CD002013F51000AC2E011
:10284C003F51010AC6E03F51020AD4E0F2D7006AB8
:02285C00120068
:10285E0002013D6BE60E3E6F2D0E3F6F000E406F78
:10286E00FDEC0FF0100E02013D6F800E3E6F250E37
:10287E003F6F000E406F416FF1DD710E02013D6F33
:10288E00010E3E6F020E3F6F92DF090E0B6E1E0E93
:10289E000C6EE40E0D6E0D2EFED70C2EFCD70B2EED
:0628AE00FAD70000120041
:1028B4000900F5CFE6FF0006FBE10106F9E112008D
:1028C400D20E02013D6F010E3E6F010E3F6F74DFA9
:1028D400020E02014A6F14EC0DF000C087F101C032
:1028E40088F100C03DF201C03EF2A00E3F6F010E20
:1028F400406FC1DEA00E3D6F010E3E6F020E3F6FB2
:102904005BDF890E02013D6F010E3E6F010E3F6FCA
:1029140053DF020E02013D6F87C13EF288C13FF2D0
:10292400E1DD00C02DF201C02EF202C02FF203C07F
:1029340030F200C03DF201C03EF202C03FF203C0DB
:1029440040F2A00E0201416F010E426F28EC10F01C
:10295400A00E3D6F010E3E6F020E3F6F2DDF8B0EFA
:1029640002013D6F000E3E6F010E3F6F25DF030E27
:1029740002014A6F14EC0DF000C09AF001C09BF004
:1029840000C03DF201C03EF2A00E3F6F010E406F49
:1029940072DEA00E3D6F010E3E6F020E3F6F0CDF24
:1029A400650E02013D6F000E3E6F010E3F6F04DFA6
:1029B400030E02013D6F9AC03EF29BC03FF292DDCE
:1029C40000C02DF201C02EF202C02FF203C030F27B
:1029D40000C03DF201C03EF202C03FF203C040F22B
:1029E400A00E0201416F010E426F28EC10F0A00E00
:1029F4003D6F010E3E6F020E3F6FDEDE7C0E020164
:102A04003D6F000E3E6F010E3F6FD6DE040E0201D5
:102A14004A6F14EC0DF000C0ADF001C0AEF000C080
:102A24003DF201C03EF2A00E3F6F010E406F23DE67
:102A3400A00E3D6F010E3E6F020E3F6FBDDEAF0E66
:102A440002013D6F000E3E6F010E3F6FB5DE040EB6
:102A540002013D6FADC03EF2AEC03FF243DD00C0A7
:102A64002DF201C02EF202C02FF203C030F200C0DA
:102A74003DF201C03EF202C03FF203C040F2A00E9C
:102A84000201416F010E426F28EC10F0A00E3D6F61
:102A9400010E3E6F020E3F6F8FDE9C0E02013D6FF2
:102AA400000E3E6F010E3F6F87DE66DE00C0E5F16B
:102AB40001C0E6F102C0E7F103C0E8F100C03DF255
:102AC40001C03EF202C03FF203C040F2A00E416FCB
:102AD400010E426F28EC10F0A00E3D6F010E3E6F08
:102AE400020E3F6F69DE190E02013D6F000E3E6F4C
:102AF400020E3F6F61DEA30E0B6E570E0C6E020EBC
:102B04000D6E0D2EFED70C2EFCD70B2EFAD700001F
:022B14001200AD
:102B1600720E02013D6F2D0E3E6F000E3F6FD20EFC
:102B2600406F2D0E416F000E426F740E436F10DE24
:102B36009ADD060E02014A6FA00E006E090E001005
:102B46004B6FFDEC09F0070E02014A6F400E006E56
:102B5600800E00104B6F080E4B13030E4B13FDEC4B
:102B660009F0080E02014A6F100E4B6FFDEC09F0DA
:102B7600090E02014A6F520E4B6FFDEC09F00A0E68
:102B860002014A6F010E4B6FFDEC09F0F3EC0FF0FA
:022B960012002B
:0E2B9800F5EC16F060DEBBDF91DEFED7FFD756
:102DEA0010EE15F0CC0E006E020E016EA60EF66EF7
:0E2DFA002B0EF76E000EF86E5AEC14F012005D
:042BA600000000002B
:022BAA00200009
:042BAC000000000025
:042BB0004E614E0024
:102BB40000040000000800000010000000200000D5
:102BC400004000000080000000000100000002003E
:102BD40000000400000008000000100000002000B5
:0C2BE40000004000000080000000000124
:042BF000494E460004
:022BF4003000AF
:102BF6002045652059206368616E6E656C206461AE
:072C060074613A2020200058
:0F2C0D00204368616E6E656C205A203A202000CB
:0F2C1C00204368616E6E656C2059203A202000BD
:022C2B000000A7
:102C2D002054656D7065726174757265203A20204F
:012C3D000096
:022C3E00000094
:102C4000204565205A206368616E6E656C20646162
:072C500074613A202020000E
:0C2C570000102030405060708090A0B051
:0F2C6300000102030405060708090A0B0C0D0EF9
:102C72008941007E8941007F273100802731008110
:102C8200273100822731008327310084AA31008551
:102C9200AA3100868931008789310088893100890B
:102CA2008D976E7E52B86E7F52B86E8052B86E812A
:102CB20039B46E8239B46E833FB56E843FB56E858A
:102CC200FEB46E861FB56E871FB56E8817B56E8906
:102CD2002DB25D7E2DB25D7FCBA15D80FCA95D81B1
:102CE200FCA95D82F0A75D83F0A75D84F0A75D85F6
:102CF20031A85D8631A85D8731A85D8829A85D89E4
:102D0200202D2D2D2053797374656D20496E6974C1
:062D1200202D2D2D2000F4
:022D18000000B9
:102D1A002045652058206368616E6E656C20646189
:072D2A0074613A2020200033
:102D31000000000000000000000000000000000092
:102D41000000000000000000000000000000000082
:102D51000000000000000000000000000000000072
:022D6100000070
:0F2D6300204368616E6E656C2058203A20200076
:102D7200A6016102980161026C01610242016102D5
:102D8200340161025E0161025001610208026102C6
:102D9200FA0161022402610216026102EC0161027F
:102DA2003E050000CE020000680600004009000057
:102DB2007C06000072060000B0070000E20200007C
:102DC200D8020000540900004A0900002A06000047
:102DD200860600004603000086040000BA075B0274
:042DE20066055B0225
:042DE600A0860100C2
:020000040030CA
:0E00000015137F7CF98B91FFFFC0FFE0FF40DE
:00000001FF
